:1000000002308A00F82A00000A108A100A118207BA
:1000100028340C3401340634C2204E105024C92632
:10002000A0264110542941270000CB225928412203
:10003000201A781A0001393084008313000803194C
:100040002828A530F700F70B23280000800B212873
:10005000080040182D2887112E288715A011200888
:10006000831687008312C01837280712382807160E
:100070002012200883168700831240194128871216
:1000800042288716A0122008831687008312C01901
:100090004B2807134C2807172013200883168700C6
:1000A0000000831207152011200883168700000026
:1000B000831207112011200883168700831208007D
:1000C000C101A0152008831687000030831287190C
:1000D0000130C104201620088316870000308312E7
:1000E000071A0130F7000310F70D7708C104A016B6
:1000F00020088316870000308312871A0130F7002A
:10010000F70DF70DFC30F7057708C104201720081C
:100110008316870000308312071B0130F700F70DAC
:10012000F70DF70DF830F7057708C1044108F8001E
:100130000800071020102008831687008312A015DE
:100140002008831687008312201620088316870054
:100150008312A01620088316870083122017200818
:100160008316870083128714A01020088316870047
:100170000000831207152011200883168700000055
:10018000831260207808C000071120112008831610
:1001900087000000831207152011200883168700AE
:1001A0000000831260207808BF000711201120088A
:1001B000831687008312A0112008831687008312FC
:1001C00020122008831687008312A01220088316AD
:1001D0008700831220132008831687008312400EA5
:1001E000F700F030F70577083F04F8007808BF0003
:1001F000BF1B9F28BD08031DFF28071000290714F7
:100200002010200883168700000083128710A0109A
:100210002008831687000000831207112011200890
:100220008316870083123E0EBF000F30BF053F08C4
:10023000C00029203E080F39BF00C0002920080057
:100240003A0B2429BB0138293A08023C031D2B290B
:100250004030BB0038293A08033C031D32291430D2
:10026000BB0038293A08043C031D38295430BB0030
:1002700001303902BB073B088038BC00BD013C0897
:10028000BE009920080038080C3A03194E29063A96
:1002900003195629023A03195C296129BD0101306D
:1002A000BE0099200230B9001B2066290130B90038
:1002B0000230BA0020216629BD011030BE0099200D
:1002C00066290130BD003808BE0099200800A01141
:1002D00020088316870083122012200883168700C7
:1002E0008312A0122008831687008312201320088F
:1002F000831687008312201120088316870083123B
:1003000020102008831687008312A010200883166F
:10031000870083120710201020088316870083129D
:100320008710A01020088316870083120711201160
:100330002008831687000F308312B9001B2001307C
:10034000B5003508033C031CAD290330C00029204B
:100350000530B9001B20B50AA1290230C0002920B0
:10036000B5013508033C031CBE2935080420B6003E
:10037000BD013608BE009920B50AB1290C30B8007D
:1003800043218A110A122D2B01303602FC3E03183C
:10039000F229043EF329B708031DD0290810D129FA
:1003A0000814831608108312F229B708031DDA29EE
:1003B0008810DB298814831688108312F229B70865
:1003C000031DE4290811E529081583160811831275
:1003D000F229B708031DEE298811EF298815831625
:1003E0008811831208000A148A100A118207CB2987
:1003F000D529DF29E9290130B5003508043C031C63
:10040000082A3508B6000130B700C421B50AFD2915
:100410008A110A122E2B0B08B5008B1383160317B3
:100420008C170C140000000083120313B51B8B17EC
:1004300003170C087F3903195F2A0313B50003174C
:100440000D080313B60003170F080313B700350890
:10045000B8004321360803178D000313370803172C
:100460008F0003130B08B8008B13831603178C1728
:100470000C140000000083120313B81B8B17031722
:100480000C0D0E0D7F3903195F2A0313B5000317F6
:100490000D080313B60003170F080313B700350840
:1004A000B8004321360803178D00031337080317DC
:1004B0008F008D0A03198F0A03130B2A03170313E6
:1004C0000800B5010130B600B701C4218316081633
:1004D0008312081A6D2A0130B5008316881683121C
:1004E000881A742A0230B500831608178312081B75
:1004F0007B2A0330B500831688178312881B822A53
:100500000430B5000130B600B700C4210230B60097
:10051000B701C421831608168312081A912A0530E0
:10052000B500831688168312881A982A0630B500FB
:10053000831608178312081B9F2A0730B5008316FD
:1005400088178312881BA62A0830B5000230B6002F
:100550000130B700C4210330B600B701C4218316AF
:1005600008168312081AB62A0930B50083168816B1
:100570008312881ABD2A0A30B50083160817831221
:10058000081BC42A0B30B500831688178312881BFA
:10059000CB2A0C30B5000330B6000130B700C421BF
:1005A0000430B600B701C421831608168312081A56
:1005B000DB2A0D30B500831688168312881AE22ACA
:1005C0000E30B500831608178312081BE92A0F3076
:1005D000B500831688178312881BF02A1030B500E7
:1005E0000430B6000130B700C4213508F800080017
:1005F00003081F398300FF30A00083161F149F14C7
:100600001F159F1107309C00831363308312A100D4
:100610003130A2003430A3003730A4003030A500C0
:100620003230A6003530A7003830A8003D30A90090
:100630003330AA003630AB003930AC002B30AD007F
:100640002D30AE007830AF002F30B000B101B201D4
:100650000130B3000330B4006729FB290130B90031
:10066000BA0020210C3003178D0000308F000313D7
:100670000B220130B9000230BA00202115300317D7
:100680008D0000308F0003130B2261227808B10027
:10069000B1080319642B3108B2003308B9003408DB
:1006A000BA00202101303202213E84008313000869
:1006B000B500B8004321B30A6122F8080319642B7E
:0C06C0000530B9001B205C2B452B6300AB
:02400E00323F3F
:00000001FF
;PIC16F877A
;CRC=8170  CREATED="29-Sep-17 00:49"
